{
  "contractName": "AssetTracker",
  "abi": [
    {
      "inputs": [],
      "payable": false,
      "stateMutability": "nonpayable",
      "type": "constructor"
    },
    {
      "constant": false,
      "inputs": [
        {
          "name": "_name",
          "type": "string"
        },
        {
          "name": "_useLength",
          "type": "uint256"
        },
        {
          "name": "_desiredPrice",
          "type": "uint256"
        },
        {
          "name": "_defaultCode",
          "type": "string"
        },
        {
          "name": "_location",
          "type": "string"
        }
      ],
      "name": "registerDevice",
      "outputs": [],
      "payable": false,
      "stateMutability": "nonpayable",
      "type": "function"
    },
    {
      "constant": false,
      "inputs": [
        {
          "name": "_name",
          "type": "string"
        }
      ],
      "name": "deregisterDevice",
      "outputs": [],
      "payable": false,
      "stateMutability": "nonpayable",
      "type": "function"
    },
    {
      "constant": false,
      "inputs": [
        {
          "name": "_name",
          "type": "string"
        },
        {
          "name": "_newName",
          "type": "string"
        },
        {
          "name": "_newUseLength",
          "type": "uint256"
        },
        {
          "name": "_newDesiredPrice",
          "type": "uint256"
        },
        {
          "name": "_newDefaultCode",
          "type": "string"
        },
        {
          "name": "_newLocation",
          "type": "string"
        }
      ],
      "name": "updateDevice",
      "outputs": [],
      "payable": false,
      "stateMutability": "nonpayable",
      "type": "function"
    },
    {
      "constant": false,
      "inputs": [
        {
          "name": "_deviceName",
          "type": "string"
        }
      ],
      "name": "makeBid",
      "outputs": [],
      "payable": true,
      "stateMutability": "payable",
      "type": "function"
    },
    {
      "constant": false,
      "inputs": [
        {
          "name": "_deviceName",
          "type": "string"
        }
      ],
      "name": "startAuction",
      "outputs": [],
      "payable": false,
      "stateMutability": "nonpayable",
      "type": "function"
    },
    {
      "constant": false,
      "inputs": [
        {
          "name": "_deviceName",
          "type": "string"
        }
      ],
      "name": "endAuction",
      "outputs": [],
      "payable": false,
      "stateMutability": "nonpayable",
      "type": "function"
    },
    {
      "constant": false,
      "inputs": [
        {
          "name": "_deviceName",
          "type": "string"
        }
      ],
      "name": "removeAccess",
      "outputs": [],
      "payable": false,
      "stateMutability": "nonpayable",
      "type": "function"
    },
    {
      "constant": false,
      "inputs": [
        {
          "name": "_deviceName",
          "type": "string"
        },
        {
          "name": "_myCode",
          "type": "string"
        }
      ],
      "name": "createAccessCode",
      "outputs": [
        {
          "name": "_code",
          "type": "string"
        }
      ],
      "payable": false,
      "stateMutability": "nonpayable",
      "type": "function"
    }
  ],
  "bytecode": "0x608060405234801561001057600080fd5b50613479806100206000396000f30060806040526004361061008e576000357c0100000000000000000000000000000000000000000000000000000000900463ffffffff1680632e5264591461009357806334a5497a146100fc578063471966451461016557806373dc756c1461028d5780639d9a1c99146102f6578063b3c7dac614610352578063ce2ba9bf146104a1578063df5aac861461050a575b600080fd5b34801561009f57600080fd5b506100fa600480360381019080803590602001908201803590602001908080601f0160208091040260200160405190810160405280939291908181526020018383808284378201915050505050509192919290505050610613565b005b34801561010857600080fd5b50610163600480360381019080803590602001908201803590602001908080601f0160208091040260200160405190810160405280939291908181526020018383808284378201915050505050509192919290505050610a80565b005b34801561017157600080fd5b50610212600480360381019080803590602001908201803590602001908080601f0160208091040260200160405190810160405280939291908181526020018383808284378201915050505050509192919290803590602001908201803590602001908080601f0160208091040260200160405190810160405280939291908181526020018383808284378201915050505050509192919290505050610cca565b6040518080602001828103825283818151815260200191508051906020019080838360005b83811015610252578082015181840152602081019050610237565b50505050905090810190601f16801561027f5780820380516001836020036101000a031916815260200191505b509250505060405180910390f35b34801561029957600080fd5b506102f4600480360381019080803590602001908201803590602001908080601f0160208091040260200160405190810160405280939291908181526020018383808284378201915050505050509192919290505050610f64565b005b610350600480360381019080803590602001908201803590602001908080601f0160208091040260200160405190810160405280939291908181526020018383808284378201915050505050509192919290505050611249565b005b34801561035e57600080fd5b5061049f600480360381019080803590602001908201803590602001908080601f0160208091040260200160405190810160405280939291908181526020018383808284378201915050505050509192919290803590602001908201803590602001908080601f01602080910402602001604051908101604052809392919081815260200183838082843782019150505050505091929192908035906020019092919080359060200190929190803590602001908201803590602001908080601f0160208091040260200160405190810160405280939291908181526020018383808284378201915050505050509192919290803590602001908201803590602001908080601f0160208091040260200160405190810160405280939291908181526020018383808284378201915050505050509192919290505050611acd565b005b3480156104ad57600080fd5b50610508600480360381019080803590602001908201803590602001908080601f0160208091040260200160405190810160405280939291908181526020018383808284378201915050505050509192919290505050612524565b005b34801561051657600080fd5b50610611600480360381019080803590602001908201803590602001908080601f01602080910402602001604051908101604052809392919081815260200183838082843782019150505050505091929192908035906020019092919080359060200190929190803590602001908201803590602001908080601f0160208091040260200160405190810160405280939291908181526020018383808284378201915050505050509192919290803590602001908201803590602001908080601f0160208091040260200160405190810160405280939291908181526020018383808284378201915050505050509192919290505050612c21565b005b3373ffffffffffffffffffffffffffffffffffffffff166000826040518082805190602001908083835b602083101515610662578051825260208201915060208101905060208303925061063d565b6001836020036101000a038019825116818451168082178552505050505050905001915050908152602001604051809103902060010160009054906101000a900473ffffffffffffffffffffffffffffffffffffffff1673ffffffffffffffffffffffffffffffffffffffff161415156106db57600080fd5b6000816040518082805190602001908083835b60208310151561071357805182526020820191506020810190506020830392506106ee565b6001836020036101000a0380198251168184511680821785525050505050509050019150509081526020016040518091039020600201546000826040518082805190602001908083835b602083101515610782578051825260208201915060208101905060208303925061075d565b6001836020036101000a0380198251168184511680821785525050505050509050019150509081526020016040518091039020600a015442031115156107c757600080fd5b6000816040518082805190602001908083835b6020831015156107ff57805182526020820191506020810190506020830392506107da565b6001836020036101000a038019825116818451168082178552505050505050905001915050908152602001604051809103902060030160019054906101000a900460ff16151561084e57600080fd5b600080826040518082805190602001908083835b6020831015156108875780518252602082019150602081019050602083039250610862565b6001836020036101000a038019825116818451168082178552505050505050905001915050908152602001604051809103902060030160006101000a81548160ff0219169083151502179055506000816040518082805190602001908083835b60208310151561090c57805182526020820191506020810190506020830392506108e7565b6001836020036101000a03801982511681845116808217855250505050505090500191505090815260200160405180910390206005016000826040518082805190602001908083835b60208310151561097a5780518252602082019150602081019050602083039250610955565b6001836020036101000a038019825116818451168082178552505050505050905001915050908152602001604051809103902060040190805460018160011615610100020316600290046109cf9291906131a1565b50600080826040518082805190602001908083835b602083101515610a0957805182526020820191506020810190506020830392506109e4565b6001836020036101000a0380198251168184511680821785525050505050509050019150509081526020016040518091039020600b0160016101000a81548173ffffffffffffffffffffffffffffffffffffffff021916908373ffffffffffffffffffffffffffffffffffffffff16021790555050565b3373ffffffffffffffffffffffffffffffffffffffff166000826040518082805190602001908083835b602083101515610acf5780518252602082019150602081019050602083039250610aaa565b6001836020036101000a038019825116818451168082178552505050505050905001915050908152602001604051809103902060010160009054906101000a900473ffffffffffffffffffffffffffffffffffffffff1673ffffffffffffffffffffffffffffffffffffffff16141515610b4857600080fd5b6000816040518082805190602001908083835b602083101515610b805780518252602082019150602081019050602083039250610b5b565b6001836020036101000a038019825116818451168082178552505050505050905001915050908152602001604051809103902060008082016000610bc49190613228565b6001820160006101000a81549073ffffffffffffffffffffffffffffffffffffffff021916905560028201600090556003820160006101000a81549060ff02191690556003820160016101000a81549060ff0219169055600482016000610c2b9190613228565b600582016000610c3b9190613228565b600682016000610c4b9190613228565b60078201600090556008820160006101000a81549073ffffffffffffffffffffffffffffffffffffffff02191690556009820160009055600a820160009055600b820160006101000a81549060ff0219169055600b820160016101000a81549073ffffffffffffffffffffffffffffffffffffffff0219169055505050565b60606000836040518082805190602001908083835b602083101515610d045780518252602082019150602081019050602083039250610cdf565b6001836020036101000a0380198251168184511680821785525050505050509050019150509081526020016040518091039020600b0160019054906101000a900473ffffffffffffffffffffffffffffffffffffffff1673ffffffffffffffffffffffffffffffffffffffff163373ffffffffffffffffffffffffffffffffffffffff161415610f2257816000846040518082805190602001908083835b602083101515610dc75780518252602082019150602081019050602083039250610da2565b6001836020036101000a03801982511681845116808217855250505050505090500191505090815260200160405180910390206004019080519060200190610e10929190613270565b506000836040518082805190602001908083835b602083101515610e495780518252602082019150602081019050602083039250610e24565b6001836020036101000a03801982511681845116808217855250505050505090500191505090815260200160405180910390206004018054600181600116156101000203166002900480601f016020809104026020016040519081016040528092919081815260200182805460018160011615610100020316600290048015610f135780601f10610ee857610100808354040283529160200191610f13565b820191906000526020600020905b815481529060010190602001808311610ef657829003601f168201915b50505050509050809050610f5e565b6040805190810160405280601181526020017f5045524d495353494f4e2044454e49454400000000000000000000000000000081525090508090505b92915050565b3373ffffffffffffffffffffffffffffffffffffffff166000826040518082805190602001908083835b602083101515610fb35780518252602082019150602081019050602083039250610f8e565b6001836020036101000a038019825116818451168082178552505050505050905001915050908152602001604051809103902060010160009054906101000a900473ffffffffffffffffffffffffffffffffffffffff1673ffffffffffffffffffffffffffffffffffffffff1614151561102c57600080fd5b6000816040518082805190602001908083835b602083101515611064578051825260208201915060208101905060208303925061103f565b6001836020036101000a038019825116818451168082178552505050505050905001915050908152602001604051809103902060030160009054906101000a900460ff16156110b257600080fd5b6000816040518082805190602001908083835b6020831015156110ea57805182526020820191506020810190506020830392506110c5565b6001836020036101000a038019825116818451168082178552505050505050905001915050908152602001604051809103902060030160019054906101000a900460ff16151561113957600080fd5b6000816040518082805190602001908083835b602083101515611171578051825260208201915060208101905060208303925061114c565b6001836020036101000a0380198251168184511680821785525050505050509050019150509081526020016040518091039020600b0160009054906101000a900460ff16156111bf57600080fd5b60016000826040518082805190602001908083835b6020831015156111f957805182526020820191506020810190506020830392506111d4565b6001836020036101000a0380198251168184511680821785525050505050509050019150509081526020016040518091039020600b0160006101000a81548160ff02191690831515021790555050565b6000816040518082805190602001908083835b602083101515611281578051825260208201915060208101905060208303925061125c565b6001836020036101000a038019825116818451168082178552505050505050905001915050908152602001604051809103902060030160009054906101000a900460ff16156115ea576000816040518082805190602001908083835b60208310151561130257805182526020820191506020810190506020830392506112dd565b6001836020036101000a0380198251168184511680821785525050505050509050019150509081526020016040518091039020600201546000826040518082805190602001908083835b602083101515611371578051825260208201915060208101905060208303925061134c565b6001836020036101000a0380198251168184511680821785525050505050509050019150509081526020016040518091039020600a0154420311156115e457600080826040518082805190602001908083835b6020831015156113e957805182526020820191506020810190506020830392506113c4565b6001836020036101000a038019825116818451168082178552505050505050905001915050908152602001604051809103902060030160006101000a81548160ff0219169083151502179055506000816040518082805190602001908083835b60208310151561146e5780518252602082019150602081019050602083039250611449565b6001836020036101000a03801982511681845116808217855250505050505090500191505090815260200160405180910390206005016000826040518082805190602001908083835b6020831015156114dc57805182526020820191506020810190506020830392506114b7565b6001836020036101000a038019825116818451168082178552505050505050905001915050908152602001604051809103902060040190805460018160011615610100020316600290046115319291906131a1565b50600080826040518082805190602001908083835b60208310151561156b5780518252602082019150602081019050602083039250611546565b6001836020036101000a0380198251168184511680821785525050505050509050019150509081526020016040518091039020600b0160016101000a81548173ffffffffffffffffffffffffffffffffffffffff021916908373ffffffffffffffffffffffffffffffffffffffff1602179055506115e9565b600080fd5b5b6000816040518082805190602001908083835b60208310151561162257805182526020820191506020810190506020830392506115fd565b6001836020036101000a0380198251168184511680821785525050505050509050019150509081526020016040518091039020600b0160009054906101000a900460ff16151561167157600080fd5b6000816040518082805190602001908083835b6020831015156116a95780518252602082019150602081019050602083039250611684565b6001836020036101000a038019825116818451168082178552505050505050905001915050908152602001604051809103902060030160019054906101000a900460ff1615156116f857600080fd5b6000816040518082805190602001908083835b602083101515611730578051825260208201915060208101905060208303925061170b565b6001836020036101000a03801982511681845116808217855250505050505090500191505090815260200160405180910390206007015434101561177357600080fd5b6000816040518082805190602001908083835b6020831015156117ab5780518252602082019150602081019050602083039250611786565b6001836020036101000a038019825116818451168082178552505050505050905001915050908152602001604051809103902060090154341115156117ef57600080fd5b600080826040518082805190602001908083835b6020831015156118285780518252602082019150602081019050602083039250611803565b6001836020036101000a0380198251168184511680821785525050505050509050019150509081526020016040518091039020600901541415156119aa576000816040518082805190602001908083835b60208310151561189e5780518252602082019150602081019050602083039250611879565b6001836020036101000a038019825116818451168082178552505050505050905001915050908152602001604051809103902060080160009054906101000a900473ffffffffffffffffffffffffffffffffffffffff1673ffffffffffffffffffffffffffffffffffffffff166108fc6000836040518082805190602001908083835b6020831015156119465780518252602082019150602081019050602083039250611921565b6001836020036101000a0380198251168184511680821785525050505050509050019150509081526020016040518091039020600901549081150290604051600060405180830381858888f193505050501580156119a8573d6000803e3d6000fd5b505b346000826040518082805190602001908083835b6020831015156119e357805182526020820191506020810190506020830392506119be565b6001836020036101000a038019825116818451168082178552505050505050905001915050908152602001604051809103902060090181905550336000826040518082805190602001908083835b602083101515611a565780518252602082019150602081019050602083039250611a31565b6001836020036101000a038019825116818451168082178552505050505050905001915050908152602001604051809103902060080160006101000a81548173ffffffffffffffffffffffffffffffffffffffff021916908373ffffffffffffffffffffffffffffffffffffffff16021790555050565b611ad56132f0565b3373ffffffffffffffffffffffffffffffffffffffff166000886040518082805190602001908083835b602083101515611b245780518252602082019150602081019050602083039250611aff565b6001836020036101000a038019825116818451168082178552505050505050905001915050908152602001604051809103902060010160009054906101000a900473ffffffffffffffffffffffffffffffffffffffff1673ffffffffffffffffffffffffffffffffffffffff16141515611b9d57600080fd5b6000866040518082805190602001908083835b602083101515611bd55780518252602082019150602081019050602083039250611bb0565b6001836020036101000a038019825116818451168082178552505050505050905001915050908152602001604051809103902060030160019054906101000a900460ff1615611c2357600080fd5b6000876040518082805190602001908083835b602083101515611c5b5780518252602082019150602081019050602083039250611c36565b6001836020036101000a038019825116818451168082178552505050505050905001915050908152602001604051809103902060030160009054906101000a900460ff1615611ca957600080fd5b6000876040518082805190602001908083835b602083101515611ce15780518252602082019150602081019050602083039250611cbc565b6001836020036101000a03801982511681845116808217855250505050505090500191505090815260200160405180910390206101c06040519081016040529081600082018054600181600116156101000203166002900480601f016020809104026020016040519081016040528092919081815260200182805460018160011615610100020316600290048015611dba5780601f10611d8f57610100808354040283529160200191611dba565b820191906000526020600020905b815481529060010190602001808311611d9d57829003601f168201915b505050505081526020016001820160009054906101000a900473ffffffffffffffffffffffffffffffffffffffff1673ffffffffffffffffffffffffffffffffffffffff1673ffffffffffffffffffffffffffffffffffffffff168152602001600282015481526020016003820160009054906101000a900460ff161515151581526020016003820160019054906101000a900460ff16151515158152602001600482018054600181600116156101000203166002900480601f016020809104026020016040519081016040528092919081815260200182805460018160011615610100020316600290048015611ef25780601f10611ec757610100808354040283529160200191611ef2565b820191906000526020600020905b815481529060010190602001808311611ed557829003601f168201915b50505050508152602001600582018054600181600116156101000203166002900480601f016020809104026020016040519081016040528092919081815260200182805460018160011615610100020316600290048015611f945780601f10611f6957610100808354040283529160200191611f94565b820191906000526020600020905b815481529060010190602001808311611f7757829003601f168201915b50505050508152602001600682018054600181600116156101000203166002900480601f0160208091040260200160405190810160405280929190818152602001828054600181600116156101000203166002900480156120365780601f1061200b57610100808354040283529160200191612036565b820191906000526020600020905b81548152906001019060200180831161201957829003601f168201915b50505050508152602001600782015481526020016008820160009054906101000a900473ffffffffffffffffffffffffffffffffffffffff1673ffffffffffffffffffffffffffffffffffffffff1673ffffffffffffffffffffffffffffffffffffffff16815260200160098201548152602001600a8201548152602001600b820160009054906101000a900460ff16151515158152602001600b820160019054906101000a900473ffffffffffffffffffffffffffffffffffffffff1673ffffffffffffffffffffffffffffffffffffffff1673ffffffffffffffffffffffffffffffffffffffff16815250509050858160000181905250848160400181815250508381610100018181525050828160c00181905250818160e001819052506000876040518082805190602001908083835b60208310151561218e5780518252602082019150602081019050602083039250612169565b6001836020036101000a0380198251168184511680821785525050505050509050019150509081526020016040518091039020600080820160006121d29190613228565b6001820160006101000a81549073ffffffffffffffffffffffffffffffffffffffff021916905560028201600090556003820160006101000a81549060ff02191690556003820160016101000a81549060ff02191690556004820160006122399190613228565b6005820160006122499190613228565b6006820160006122599190613228565b60078201600090556008820160006101000a81549073ffffffffffffffffffffffffffffffffffffffff02191690556009820160009055600a820160009055600b820160006101000a81549060ff0219169055600b820160016101000a81549073ffffffffffffffffffffffffffffffffffffffff02191690555050806000876040518082805190602001908083835b60208310151561230e57805182526020820191506020810190506020830392506122e9565b6001836020036101000a0380198251168184511680821785525050505050509050019150509081526020016040518091039020600082015181600001908051906020019061235d9291906133a8565b5060208201518160010160006101000a81548173ffffffffffffffffffffffffffffffffffffffff021916908373ffffffffffffffffffffffffffffffffffffffff1602179055506040820151816002015560608201518160030160006101000a81548160ff02191690831515021790555060808201518160030160016101000a81548160ff02191690831515021790555060a082015181600401908051906020019061240b9291906133a8565b5060c08201518160050190805190602001906124289291906133a8565b5060e08201518160060190805190602001906124459291906133a8565b5061010082015181600701556101208201518160080160006101000a81548173ffffffffffffffffffffffffffffffffffffffff021916908373ffffffffffffffffffffffffffffffffffffffff160217905550610140820151816009015561016082015181600a015561018082015181600b0160006101000a81548160ff0219169083151502179055506101a082015181600b0160016101000a81548173ffffffffffffffffffffffffffffffffffffffff021916908373ffffffffffffffffffffffffffffffffffffffff16021790555090505050505050505050565b3373ffffffffffffffffffffffffffffffffffffffff166000826040518082805190602001908083835b602083101515612573578051825260208201915060208101905060208303925061254e565b6001836020036101000a038019825116818451168082178552505050505050905001915050908152602001604051809103902060010160009054906101000a900473ffffffffffffffffffffffffffffffffffffffff1673ffffffffffffffffffffffffffffffffffffffff161415156125ec57600080fd5b6000816040518082805190602001908083835b60208310151561262457805182526020820191506020810190506020830392506125ff565b6001836020036101000a038019825116818451168082178552505050505050905001915050908152602001604051809103902060030160009054906101000a900460ff161561267257600080fd5b6000816040518082805190602001908083835b6020831015156126aa5780518252602082019150602081019050602083039250612685565b6001836020036101000a038019825116818451168082178552505050505050905001915050908152602001604051809103902060030160019054906101000a900460ff1615156126f957600080fd5b6000816040518082805190602001908083835b602083101515612731578051825260208201915060208101905060208303925061270c565b6001836020036101000a0380198251168184511680821785525050505050509050019150509081526020016040518091039020600b0160009054906101000a900460ff16151561278057600080fd5b600080826040518082805190602001908083835b6020831015156127b95780518252602082019150602081019050602083039250612794565b6001836020036101000a038019825116818451168082178552505050505050905001915050908152602001604051809103902060080160009054906101000a900473ffffffffffffffffffffffffffffffffffffffff1673ffffffffffffffffffffffffffffffffffffffff1614156128b757600080826040518082805190602001908083835b6020831015156128655780518252602082019150602081019050602083039250612840565b6001836020036101000a0380198251168184511680821785525050505050509050019150509081526020016040518091039020600b0160006101000a81548160ff021916908315150217905550612c1e565b426000826040518082805190602001908083835b6020831015156128f057805182526020820191506020810190506020830392506128cb565b6001836020036101000a0380198251168184511680821785525050505050509050019150509081526020016040518091039020600a01819055503373ffffffffffffffffffffffffffffffffffffffff166108fc6000836040518082805190602001908083835b60208310151561297c5780518252602082019150602081019050602083039250612957565b6001836020036101000a0380198251168184511680821785525050505050509050019150509081526020016040518091039020600901549081150290604051600060405180830381858888f193505050501580156129de573d6000803e3d6000fd5b50612a77816000836040518082805190602001908083835b602083101515612a1b57805182526020820191506020810190506020830392506129f6565b6001836020036101000a038019825116818451168082178552505050505050905001915050908152602001604051809103902060080160009054906101000a900473ffffffffffffffffffffffffffffffffffffffff16612fa1565b600080826040518082805190602001908083835b602083101515612ab05780518252602082019150602081019050602083039250612a8b565b6001836020036101000a038019825116818451168082178552505050505050905001915050908152602001604051809103902060080160006101000a81548173ffffffffffffffffffffffffffffffffffffffff021916908373ffffffffffffffffffffffffffffffffffffffff160217905550600080826040518082805190602001908083835b602083101515612b5d5780518252602082019150602081019050602083039250612b38565b6001836020036101000a038019825116818451168082178552505050505050905001915050908152602001604051809103902060090181905550600080826040518082805190602001908083835b602083101515612bd05780518252602082019150602081019050602083039250612bab565b6001836020036101000a0380198251168184511680821785525050505050509050019150509081526020016040518091039020600b0160006101000a81548160ff0219169083151502179055505b50565b6000856040518082805190602001908083835b602083101515612c595780518252602082019150602081019050602083039250612c34565b6001836020036101000a038019825116818451168082178552505050505050905001915050908152602001604051809103902060030160019054906101000a900460ff1615612ca757600080fd5b6101c0604051908101604052808681526020013373ffffffffffffffffffffffffffffffffffffffff168152602001858152602001600015158152602001600115158152602001838152602001838152602001828152602001848152602001600073ffffffffffffffffffffffffffffffffffffffff1681526020016000815260200160008152602001600015158152602001600073ffffffffffffffffffffffffffffffffffffffff168152506000866040518082805190602001908083835b602083101515612d8d5780518252602082019150602081019050602083039250612d68565b6001836020036101000a03801982511681845116808217855250505050505090500191505090815260200160405180910390206000820151816000019080519060200190612ddc9291906133a8565b5060208201518160010160006101000a81548173ffffffffffffffffffffffffffffffffffffffff021916908373ffffffffffffffffffffffffffffffffffffffff1602179055506040820151816002015560608201518160030160006101000a81548160ff02191690831515021790555060808201518160030160016101000a81548160ff02191690831515021790555060a0820151816004019080519060200190612e8a9291906133a8565b5060c0820151816005019080519060200190612ea79291906133a8565b5060e0820151816006019080519060200190612ec49291906133a8565b5061010082015181600701556101208201518160080160006101000a81548173ffffffffffffffffffffffffffffffffffffffff021916908373ffffffffffffffffffffffffffffffffffffffff160217905550610140820151816009015561016082015181600a015561018082015181600b0160006101000a81548160ff0219169083151502179055506101a082015181600b0160016101000a81548173ffffffffffffffffffffffffffffffffffffffff021916908373ffffffffffffffffffffffffffffffffffffffff1602179055509050505050505050565b3373ffffffffffffffffffffffffffffffffffffffff166000836040518082805190602001908083835b602083101515612ff05780518252602082019150602081019050602083039250612fcb565b6001836020036101000a038019825116818451168082178552505050505050905001915050908152602001604051809103902060010160009054906101000a900473ffffffffffffffffffffffffffffffffffffffff1673ffffffffffffffffffffffffffffffffffffffff1614151561306957600080fd5b60016000836040518082805190602001908083835b6020831015156130a3578051825260208201915060208101905060208303925061307e565b6001836020036101000a038019825116818451168082178552505050505050905001915050908152602001604051809103902060030160006101000a81548160ff021916908315150217905550806000836040518082805190602001908083835b6020831015156131295780518252602082019150602081019050602083039250613104565b6001836020036101000a0380198251168184511680821785525050505050509050019150509081526020016040518091039020600b0160016101000a81548173ffffffffffffffffffffffffffffffffffffffff021916908373ffffffffffffffffffffffffffffffffffffffff1602179055505050565b828054600181600116156101000203166002900490600052602060002090601f016020900481019282601f106131da5780548555613217565b8280016001018555821561321757600052602060002091601f016020900482015b828111156132165782548255916001019190600101906131fb565b5b5090506132249190613428565b5090565b50805460018160011615610100020316600290046000825580601f1061324e575061326d565b601f01602090049060005260206000209081019061326c9190613428565b5b50565b828054600181600116156101000203166002900490600052602060002090601f016020900481019282601f106132b157805160ff19168380011785556132df565b828001600101855582156132df579182015b828111156132de5782518255916020019190600101906132c3565b5b5090506132ec9190613428565b5090565b6101c06040519081016040528060608152602001600073ffffffffffffffffffffffffffffffffffffffff1681526020016000815260200160001515815260200160001515815260200160608152602001606081526020016060815260200160008152602001600073ffffffffffffffffffffffffffffffffffffffff1681526020016000815260200160008152602001600015158152602001600073ffffffffffffffffffffffffffffffffffffffff1681525090565b828054600181600116156101000203166002900490600052602060002090601f016020900481019282601f106133e957805160ff1916838001178555613417565b82800160010185558215613417579182015b828111156134165782518255916020019190600101906133fb565b5b5090506134249190613428565b5090565b61344a91905b8082111561344657600081600090555060010161342e565b5090565b905600a165627a7a723058203adfc74b96a5134017d9f014cb13c34e8a3fc092e4843fa5f0dfdafdb337a7e40029",
  "source": "pragma solidity ^0.4.24;\r\n\r\ncontract AssetTracker {\r\n    struct Device {\r\n        string name;\r\n        address owner;\r\n        uint useLength;\r\n        bool inUse;\r\n        bool isValid;\r\n        string accessCode;\r\n        string defaultCode;\r\n        string location;\r\n        uint desiredPrice;\r\n        address bidder;\r\n        uint highestBid;\r\n        uint timeBought;\r\n        bool auctionOn;\r\n        address currentUser;\r\n    }\r\n\r\n    // contract members\r\n    mapping(string => Device) devices;\r\n\r\n    constructor() public {}\r\n\r\n    function registerDevice (string _name, uint _useLength, uint _desiredPrice, string _defaultCode, string _location) public {\r\n        if (devices[_name].isValid) {\r\n            revert();\r\n        }\r\n\r\n        devices[_name] = Device({name: _name, owner: msg.sender, useLength: _useLength, inUse: false, isValid: true, accessCode: _defaultCode, defaultCode: _defaultCode, location: _location, desiredPrice: _desiredPrice, bidder: 0x0, highestBid: 0 ether, timeBought: 0, auctionOn: false, currentUser: 0x0});\r\n    }\r\n\r\n    function deregisterDevice (string _name) public {\r\n        if (devices[_name].owner != msg.sender) {\r\n            revert();\r\n        }\r\n\r\n        delete devices[_name];\r\n    }\r\n\r\n    function updateDevice (string _name, string _newName, uint _newUseLength, uint _newDesiredPrice, string _newDefaultCode, string _newLocation) public {\r\n        if (devices[_name].owner != msg.sender) {\r\n            revert();\r\n        }\r\n\r\n        if (devices[_newName].isValid) {\r\n            revert();\r\n        }\r\n\r\n        if (devices[_name].inUse) {\r\n            revert();\r\n        }\r\n        Device memory updatedDevice = devices[_name];\r\n        updatedDevice.name = _newName;\r\n        updatedDevice.useLength = _newUseLength;\r\n        updatedDevice.desiredPrice = _newDesiredPrice;\r\n        updatedDevice.defaultCode = _newDefaultCode;\r\n        updatedDevice.location = _newLocation;\r\n\r\n        delete devices[_name];\r\n        devices[_newName] = updatedDevice;\r\n    }\r\n\r\n    // function extendUsePeriod (string _name, uint _newUseLength) private {\r\n        // if (!devices[_name].extendable) {\r\n            // revert();\r\n        // }\r\n\r\n        // devices[_name].useLength = _newUseLength;\r\n    // }\r\n\r\n    ////////////////// Auction Functions//////////////////////////\r\n    function makeBid(string _deviceName) public payable {\r\n        // if this device's current owner's time has expired, take away access and reset\r\n        if (devices[_deviceName].inUse) {       // these two might be redundant\r\n            if (now - devices[_deviceName].timeBought > devices[_deviceName].useLength) {\r\n                devices[_deviceName].inUse = false;\r\n                devices[_deviceName].accessCode = devices[_deviceName].defaultCode;\r\n                devices[_deviceName].currentUser = 0x0;\r\n            }\r\n            else {\r\n                revert();\r\n            }\r\n        }\r\n\r\n        if (!devices[_deviceName].auctionOn) {      // these two might be redundant\r\n            revert();\r\n        }\r\n\r\n        if (!devices[_deviceName].isValid) {\r\n            revert();\r\n        }\r\n\r\n        if (msg.value < devices[_deviceName].desiredPrice) {\r\n            revert();\r\n        }\r\n\r\n        if (msg.value <= devices[_deviceName].highestBid) {\r\n            revert();\r\n        }\r\n\r\n        // if this bid is valid, give back old highest bid and take this bid\r\n        if (devices[_deviceName].highestBid != 0) {\r\n            devices[_deviceName].bidder.transfer(devices[_deviceName].highestBid);\r\n        }\r\n\r\n        devices[_deviceName].highestBid = msg.value;\r\n        devices[_deviceName].bidder = msg.sender;\r\n    }\r\n\r\n    function startAuction(string _deviceName) public {\r\n        if (devices[_deviceName].owner != msg.sender) {\r\n            revert();\r\n        }\r\n\r\n        if (devices[_deviceName].inUse) {\r\n            revert();\r\n        }\r\n\r\n        if (!devices[_deviceName].isValid) {\r\n            revert();\r\n        }\r\n\r\n        if (devices[_deviceName].auctionOn) {\r\n            revert();\r\n        }\r\n\r\n        devices[_deviceName].auctionOn = true;\r\n    }\r\n\r\n    function endAuction(string _deviceName) public {\r\n        if (devices[_deviceName].owner != msg.sender) {\r\n            revert();\r\n        }\r\n\r\n        if (devices[_deviceName].inUse) {\r\n            revert();\r\n        }\r\n\r\n        if (!devices[_deviceName].isValid) {\r\n            revert();\r\n        }\r\n\r\n        if (!devices[_deviceName].auctionOn) {\r\n            revert();\r\n        }\r\n\r\n        if (devices[_deviceName].bidder == 0x0) {\r\n            devices[_deviceName].auctionOn = false;\r\n            return;\r\n        }\r\n\r\n        devices[_deviceName].timeBought = now;\r\n        msg.sender.transfer(devices[_deviceName].highestBid);   // send money from auction to device owner\r\n        // call give access\r\n        giveAccess(_deviceName, devices[_deviceName].bidder);\r\n        devices[_deviceName].bidder = 0x0;\r\n        devices[_deviceName].highestBid = 0;\r\n        devices[_deviceName].auctionOn = false;\r\n    }\r\n\r\n\r\n    ///////////////////////// Access Functions /////////////////////////////////\r\n    function giveAccess(string _deviceName, address _winner) private {\r\n        if (devices[_deviceName].owner != msg.sender) {\r\n            revert();\r\n        }\r\n\r\n        devices[_deviceName].inUse = true;\r\n        devices[_deviceName].currentUser = _winner;\r\n    }\r\n\r\n    function removeAccess(string _deviceName) public {\r\n        if (devices[_deviceName].owner != msg.sender) {\r\n            revert();\r\n        }\r\n\r\n        if (now - devices[_deviceName].timeBought <= devices[_deviceName].useLength) {\r\n            revert();\r\n        }\r\n\r\n        if (!devices[_deviceName].isValid) {\r\n            revert();\r\n        }\r\n\r\n        devices[_deviceName].inUse = false;\r\n        devices[_deviceName].accessCode = devices[_deviceName].defaultCode;\r\n        devices[_deviceName].currentUser = 0x0;\r\n    }\r\n\r\n    // allows current user (and only the current user) to change and view access code\r\n    function createAccessCode(string _deviceName, string _myCode) public returns (string _code){\r\n        if (msg.sender == devices[_deviceName].currentUser) {\r\n            devices[_deviceName].accessCode = _myCode;\r\n            _code = devices[_deviceName].accessCode;\r\n            return _code;\r\n        }\r\n\r\n        else {\r\n            _code = \"PERMISSION DENIED\";\r\n            return _code;\r\n        }\r\n    }\r\n}\r\n",
  "sourcePath": "/Users/ryanjohnston/Programming/LTH/IoTAssetTracker/contracts/AssetTracker.sol",
  "compiler": {
    "name": "solc",
    "version": "0.4.24+commit.e67f0147.Emscripten.clang"
  },
  "schemaVersion": "2.0.0",
  "updatedAt": "2018-05-31T08:34:11.736Z"
}