{
  "contractName": "AssetTracker",
  "abi": [
    {
      "constant": true,
      "inputs": [],
      "name": "numDevices",
      "outputs": [
        {
          "name": "",
          "type": "uint256"
        }
      ],
      "payable": false,
      "stateMutability": "view",
      "type": "function"
    },
    {
      "inputs": [],
      "payable": false,
      "stateMutability": "nonpayable",
      "type": "constructor"
    },
    {
      "constant": true,
      "inputs": [
        {
          "name": "_id",
          "type": "uint256"
        }
      ],
      "name": "getDeviceInfo",
      "outputs": [
        {
          "name": "",
          "type": "string"
        },
        {
          "name": "",
          "type": "uint256"
        },
        {
          "name": "",
          "type": "string"
        },
        {
          "name": "",
          "type": "uint256"
        },
        {
          "name": "",
          "type": "uint256"
        },
        {
          "name": "",
          "type": "bool"
        }
      ],
      "payable": false,
      "stateMutability": "view",
      "type": "function"
    },
    {
      "constant": false,
      "inputs": [
        {
          "name": "_name",
          "type": "string"
        },
        {
          "name": "_useLength",
          "type": "uint256"
        },
        {
          "name": "_desiredPrice",
          "type": "uint256"
        },
        {
          "name": "_defaultCode",
          "type": "string"
        },
        {
          "name": "_location",
          "type": "string"
        }
      ],
      "name": "registerDevice",
      "outputs": [],
      "payable": false,
      "stateMutability": "nonpayable",
      "type": "function"
    },
    {
      "constant": false,
      "inputs": [
        {
          "name": "_name",
          "type": "string"
        }
      ],
      "name": "deregisterDevice",
      "outputs": [],
      "payable": false,
      "stateMutability": "nonpayable",
      "type": "function"
    },
    {
      "constant": false,
      "inputs": [
        {
          "name": "_name",
          "type": "string"
        },
        {
          "name": "_newName",
          "type": "string"
        },
        {
          "name": "_newUseLength",
          "type": "uint256"
        },
        {
          "name": "_newDesiredPrice",
          "type": "uint256"
        },
        {
          "name": "_newDefaultCode",
          "type": "string"
        },
        {
          "name": "_newLocation",
          "type": "string"
        }
      ],
      "name": "updateDevice",
      "outputs": [],
      "payable": false,
      "stateMutability": "nonpayable",
      "type": "function"
    },
    {
      "constant": false,
      "inputs": [
        {
          "name": "_deviceName",
          "type": "string"
        }
      ],
      "name": "makeBid",
      "outputs": [],
      "payable": true,
      "stateMutability": "payable",
      "type": "function"
    },
    {
      "constant": false,
      "inputs": [
        {
          "name": "_deviceName",
          "type": "string"
        }
      ],
      "name": "startAuction",
      "outputs": [],
      "payable": false,
      "stateMutability": "nonpayable",
      "type": "function"
    },
    {
      "constant": false,
      "inputs": [
        {
          "name": "_deviceName",
          "type": "string"
        }
      ],
      "name": "endAuction",
      "outputs": [],
      "payable": false,
      "stateMutability": "nonpayable",
      "type": "function"
    },
    {
      "constant": false,
      "inputs": [
        {
          "name": "_deviceName",
          "type": "string"
        }
      ],
      "name": "removeAccess",
      "outputs": [],
      "payable": false,
      "stateMutability": "nonpayable",
      "type": "function"
    },
    {
      "constant": false,
      "inputs": [
        {
          "name": "_deviceName",
          "type": "string"
        },
        {
          "name": "_myCode",
          "type": "string"
        }
      ],
      "name": "createAccessCode",
      "outputs": [
        {
          "name": "",
          "type": "string"
        }
      ],
      "payable": false,
      "stateMutability": "nonpayable",
      "type": "function"
    }
  ],
  "bytecode": "0x608060405234801561001057600080fd5b506000600281905550614aac806100286000396000f3006080604052600436106100a4576000357c0100000000000000000000000000000000000000000000000000000000900463ffffffff1680632d75ae6c146100a95780632e526459146101db57806334a5497a1461024457806347196645146102ad57806373dc756c146103d55780639d9a1c991461043e578063b3c7dac61461049a578063b5474550146105e9578063ce2ba9bf14610614578063df5aac861461067d575b600080fd5b3480156100b557600080fd5b506100d460048036038101908080359060200190929190505050610786565b60405180806020018781526020018060200186815260200185815260200184151515158152602001838103835289818151815260200191508051906020019080838360005b83811015610134578082015181840152602081019050610119565b50505050905090810190601f1680156101615780820380516001836020036101000a031916815260200191505b50838103825287818151815260200191508051906020019080838360005b8381101561019a57808201518184015260208101905061017f565b50505050905090810190601f1680156101c75780820380516001836020036101000a031916815260200191505b509850505050505050505060405180910390f35b3480156101e757600080fd5b50610242600480360381019080803590602001908201803590602001908080601f0160208091040260200160405190810160405280939291908181526020018383808284378201915050505050509192919290505050610c36565b005b34801561025057600080fd5b506102ab600480360381019080803590602001908201803590602001908080601f01602080910402602001604051908101604052809392919081815260200183838082843782019150505050505091929192905050506110a3565b005b3480156102b957600080fd5b5061035a600480360381019080803590602001908201803590602001908080601f0160208091040260200160405190810160405280939291908181526020018383808284378201915050505050509192919290803590602001908201803590602001908080601f016020809104026020016040519081016040528093929190818152602001838380828437820191505050505050919291929050505061182e565b6040518080602001828103825283818151815260200191508051906020019080838360005b8381101561039a57808201518184015260208101905061037f565b50505050905090810190601f1680156103c75780820380516001836020036101000a031916815260200191505b509250505060405180910390f35b3480156103e157600080fd5b5061043c600480360381019080803590602001908201803590602001908080601f0160208091040260200160405190810160405280939291908181526020018383808284378201915050505050509192919290505050611dca565b005b610498600480360381019080803590602001908201803590602001908080601f01602080910402602001604051908101604052809392919081815260200183838082843782019150505050505091929192905050506123ca565b005b3480156104a657600080fd5b506105e7600480360381019080803590602001908201803590602001908080601f0160208091040260200160405190810160405280939291908181526020018383808284378201915050505050509192919290803590602001908201803590602001908080601f01602080910402602001604051908101604052809392919081815260200183838082843782019150505050505091929192908035906020019092919080359060200190929190803590602001908201803590602001908080601f0160208091040260200160405190810160405280939291908181526020018383808284378201915050505050509192919290803590602001908201803590602001908080601f0160208091040260200160405190810160405280939291908181526020018383808284378201915050505050509192919290505050612c4e565b005b3480156105f557600080fd5b506105fe613b02565b6040518082815260200191505060405180910390f35b34801561062057600080fd5b5061067b600480360381019080803590602001908201803590602001908080601f0160208091040260200160405190810160405280939291908181526020018383808284378201915050505050509192919290505050613b08565b005b34801561068957600080fd5b50610784600480360381019080803590602001908201803590602001908080601f01602080910402602001604051908101604052809392919081815260200183838082843782019150505050505091929192908035906020019092919080359060200190929190803590602001908201803590602001908080601f0160208091040260200160405190810160405280939291908181526020018383808284378201915050505050509192919290803590602001908201803590602001908080601f0160208091040260200160405190810160405280939291908181526020018383808284378201915050505050509192919290505050614205565b005b6060600060606000806000806001888154811015156107a157fe5b9060005260206000200160405180828054600181600116156101000203166002900480156108065780601f106107e4576101008083540402835291820191610806565b820191906000526020600020905b8154815290600101906020018083116107f2575b50509150509081526020016040518091039020600001600060018981548110151561082d57fe5b9060005260206000200160405180828054600181600116156101000203166002900480156108925780601f10610870576101008083540402835291820191610892565b820191906000526020600020905b81548152906001019060200180831161087e575b5050915050908152602001604051809103902060020154600060018a8154811015156108ba57fe5b90600052602060002001604051808280546001816001161561010002031660029004801561091f5780601f106108fd57610100808354040283529182019161091f565b820191906000526020600020905b81548152906001019060200180831161090b575b50509150509081526020016040518091039020600601600060018b81548110151561094657fe5b9060005260206000200160405180828054600181600116156101000203166002900480156109ab5780601f106109895761010080835404028352918201916109ab565b820191906000526020600020905b815481529060010190602001808311610997575b5050915050908152602001604051809103902060070154600060018c8154811015156109d357fe5b906000526020600020016040518082805460018160011615610100020316600290048015610a385780601f10610a16576101008083540402835291820191610a38565b820191906000526020600020905b815481529060010190602001808311610a24575b5050915050908152602001604051809103902060090154600060018d815481101515610a6057fe5b906000526020600020016040518082805460018160011615610100020316600290048015610ac55780601f10610aa3576101008083540402835291820191610ac5565b820191906000526020600020905b815481529060010190602001808311610ab1575b50509150509081526020016040518091039020600b0160009054906101000a900460ff16858054600181600116156101000203166002900480601f016020809104026020016040519081016040528092919081815260200182805460018160011615610100020316600290048015610b7e5780601f10610b5357610100808354040283529160200191610b7e565b820191906000526020600020905b815481529060010190602001808311610b6157829003601f168201915b50505050509550838054600181600116156101000203166002900480601f016020809104026020016040519081016040528092919081815260200182805460018160011615610100020316600290048015610c1a5780601f10610bef57610100808354040283529160200191610c1a565b820191906000526020600020905b815481529060010190602001808311610bfd57829003601f168201915b5050505050935095509550955095509550955091939550919395565b3373ffffffffffffffffffffffffffffffffffffffff166000826040518082805190602001908083835b602083101515610c855780518252602082019150602081019050602083039250610c60565b6001836020036101000a038019825116818451168082178552505050505050905001915050908152602001604051809103902060010160009054906101000a900473ffffffffffffffffffffffffffffffffffffffff1673ffffffffffffffffffffffffffffffffffffffff16141515610cfe57600080fd5b6000816040518082805190602001908083835b602083101515610d365780518252602082019150602081019050602083039250610d11565b6001836020036101000a0380198251168184511680821785525050505050509050019150509081526020016040518091039020600201546000826040518082805190602001908083835b602083101515610da55780518252602082019150602081019050602083039250610d80565b6001836020036101000a0380198251168184511680821785525050505050509050019150509081526020016040518091039020600a01544203111515610dea57600080fd5b6000816040518082805190602001908083835b602083101515610e225780518252602082019150602081019050602083039250610dfd565b6001836020036101000a038019825116818451168082178552505050505050905001915050908152602001604051809103902060030160019054906101000a900460ff161515610e7157600080fd5b600080826040518082805190602001908083835b602083101515610eaa5780518252602082019150602081019050602083039250610e85565b6001836020036101000a038019825116818451168082178552505050505050905001915050908152602001604051809103902060030160006101000a81548160ff0219169083151502179055506000816040518082805190602001908083835b602083101515610f2f5780518252602082019150602081019050602083039250610f0a565b6001836020036101000a03801982511681845116808217855250505050505090500191505090815260200160405180910390206005016000826040518082805190602001908083835b602083101515610f9d5780518252602082019150602081019050602083039250610f78565b6001836020036101000a03801982511681845116808217855250505050505090500191505090815260200160405180910390206004019080546001816001161561010002031660029004610ff29291906147d4565b50600080826040518082805190602001908083835b60208310151561102c5780518252602082019150602081019050602083039250611007565b6001836020036101000a0380198251168184511680821785525050505050509050019150509081526020016040518091039020600b0160016101000a81548173ffffffffffffffffffffffffffffffffffffffff021916908373ffffffffffffffffffffffffffffffffffffffff16021790555050565b60003373ffffffffffffffffffffffffffffffffffffffff166000836040518082805190602001908083835b6020831015156110f457805182526020820191506020810190506020830392506110cf565b6001836020036101000a038019825116818451168082178552505050505050905001915050908152602001604051809103902060010160009054906101000a900473ffffffffffffffffffffffffffffffffffffffff1673ffffffffffffffffffffffffffffffffffffffff1614151561116d57600080fd5b6000826040518082805190602001908083835b6020831015156111a55780518252602082019150602081019050602083039250611180565b6001836020036101000a038019825116818451168082178552505050505050905001915050908152602001604051809103902060030160009054906101000a900460ff161561150e576000826040518082805190602001908083835b6020831015156112265780518252602082019150602081019050602083039250611201565b6001836020036101000a0380198251168184511680821785525050505050509050019150509081526020016040518091039020600201546000836040518082805190602001908083835b6020831015156112955780518252602082019150602081019050602083039250611270565b6001836020036101000a0380198251168184511680821785525050505050509050019150509081526020016040518091039020600a01544203111561150857600080836040518082805190602001908083835b60208310151561130d57805182526020820191506020810190506020830392506112e8565b6001836020036101000a038019825116818451168082178552505050505050905001915050908152602001604051809103902060030160006101000a81548160ff0219169083151502179055506000826040518082805190602001908083835b602083101515611392578051825260208201915060208101905060208303925061136d565b6001836020036101000a03801982511681845116808217855250505050505090500191505090815260200160405180910390206005016000836040518082805190602001908083835b60208310151561140057805182526020820191506020810190506020830392506113db565b6001836020036101000a038019825116818451168082178552505050505050905001915050908152602001604051809103902060040190805460018160011615610100020316600290046114559291906147d4565b50600080836040518082805190602001908083835b60208310151561148f578051825260208201915060208101905060208303925061146a565b6001836020036101000a0380198251168184511680821785525050505050509050019150509081526020016040518091039020600b0160016101000a81548173ffffffffffffffffffffffffffffffffffffffff021916908373ffffffffffffffffffffffffffffffffffffffff16021790555061150d565b600080fd5b5b6000826040518082805190602001908083835b6020831015156115465780518252602082019150602081019050602083039250611521565b6001836020036101000a03801982511681845116808217855250505050505090500191505090815260200160405180910390206000808201600061158a919061485b565b6001820160006101000a81549073ffffffffffffffffffffffffffffffffffffffff021916905560028201600090556003820160006101000a81549060ff02191690556003820160016101000a81549060ff02191690556004820160006115f1919061485b565b600582016000611601919061485b565b600682016000611611919061485b565b60078201600090556008820160006101000a81549073ffffffffffffffffffffffffffffffffffffffff02191690556009820160009055600a820160009055600b820160006101000a81549060ff0219169055600b820160016101000a81549073ffffffffffffffffffffffffffffffffffffffff02191690555050600090505b60025481101561182a57816040518082805190602001908083835b6020831015156116d257805182526020820191506020810190506020830392506116ad565b6001836020036101000a03801982511681845116808217855250505050505090500191505060405180910390206000191660018281548110151561171257fe5b9060005260206000200160405180828054600181600116156101000203166002900480156117775780601f10611755576101008083540402835291820191611777565b820191906000526020600020905b815481529060010190602001808311611763575b5050915050604051809103902060001916141561181f57600260008154600190039190508190555060016002548154811015156117b057fe5b906000526020600020016001828154811015156117c957fe5b9060005260206000200190805460018160011615610100020316600290046117f29291906147d4565b50600160025481548110151561180457fe5b90600052602060002001600061181a919061485b565b61182a565b806001019050611692565b5050565b60606000836040518082805190602001908083835b6020831015156118685780518252602082019150602081019050602083039250611843565b6001836020036101000a038019825116818451168082178552505050505050905001915050908152602001604051809103902060030160019054906101000a900460ff1615156118b757600080fd5b6000836040518082805190602001908083835b6020831015156118ef57805182526020820191506020810190506020830392506118ca565b6001836020036101000a0380198251168184511680821785525050505050509050019150509081526020016040518091039020600b0160019054906101000a900473ffffffffffffffffffffffffffffffffffffffff1673ffffffffffffffffffffffffffffffffffffffff163373ffffffffffffffffffffffffffffffffffffffff161415611d8b576000836040518082805190602001908083835b6020831015156119b1578051825260208201915060208101905060208303925061198c565b6001836020036101000a0380198251168184511680821785525050505050509050019150509081526020016040518091039020600201546000846040518082805190602001908083835b602083101515611a2057805182526020820191506020810190506020830392506119fb565b6001836020036101000a0380198251168184511680821785525050505050509050019150509081526020016040518091039020600a015442031115611ccb57600080846040518082805190602001908083835b602083101515611a985780518252602082019150602081019050602083039250611a73565b6001836020036101000a038019825116818451168082178552505050505050905001915050908152602001604051809103902060030160006101000a81548160ff0219169083151502179055506000836040518082805190602001908083835b602083101515611b1d5780518252602082019150602081019050602083039250611af8565b6001836020036101000a03801982511681845116808217855250505050505090500191505090815260200160405180910390206005016000846040518082805190602001908083835b602083101515611b8b5780518252602082019150602081019050602083039250611b66565b6001836020036101000a03801982511681845116808217855250505050505090500191505090815260200160405180910390206004019080546001816001161561010002031660029004611be09291906147d4565b50600080846040518082805190602001908083835b602083101515611c1a5780518252602082019150602081019050602083039250611bf5565b6001836020036101000a0380198251168184511680821785525050505050509050019150509081526020016040518091039020600b0160016101000a81548173ffffffffffffffffffffffffffffffffffffffff021916908373ffffffffffffffffffffffffffffffffffffffff1602179055506040805190810160405280600e81526020017f41434345535320455850495245440000000000000000000000000000000000008152509050611dc4565b816000846040518082805190602001908083835b602083101515611d045780518252602082019150602081019050602083039250611cdf565b6001836020036101000a03801982511681845116808217855250505050505090500191505090815260200160405180910390206004019080519060200190611d4d9291906148a3565b506040805190810160405280601a81526020017f50415353574f5244204348414e4745205355434345535346554c0000000000008152509050611dc4565b6040805190810160405280601181526020017f5045524d495353494f4e2044454e49454400000000000000000000000000000081525090505b92915050565b3373ffffffffffffffffffffffffffffffffffffffff166000826040518082805190602001908083835b602083101515611e195780518252602082019150602081019050602083039250611df4565b6001836020036101000a038019825116818451168082178552505050505050905001915050908152602001604051809103902060010160009054906101000a900473ffffffffffffffffffffffffffffffffffffffff1673ffffffffffffffffffffffffffffffffffffffff16141515611e9257600080fd5b6000816040518082805190602001908083835b602083101515611eca5780518252602082019150602081019050602083039250611ea5565b6001836020036101000a038019825116818451168082178552505050505050905001915050908152602001604051809103902060030160019054906101000a900460ff161515611f1957600080fd5b6000816040518082805190602001908083835b602083101515611f515780518252602082019150602081019050602083039250611f2c565b6001836020036101000a038019825116818451168082178552505050505050905001915050908152602001604051809103902060030160009054906101000a900460ff16156122ba576000816040518082805190602001908083835b602083101515611fd25780518252602082019150602081019050602083039250611fad565b6001836020036101000a0380198251168184511680821785525050505050509050019150509081526020016040518091039020600201546000826040518082805190602001908083835b602083101515612041578051825260208201915060208101905060208303925061201c565b6001836020036101000a0380198251168184511680821785525050505050509050019150509081526020016040518091039020600a0154420311156122b457600080826040518082805190602001908083835b6020831015156120b95780518252602082019150602081019050602083039250612094565b6001836020036101000a038019825116818451168082178552505050505050905001915050908152602001604051809103902060030160006101000a81548160ff0219169083151502179055506000816040518082805190602001908083835b60208310151561213e5780518252602082019150602081019050602083039250612119565b6001836020036101000a03801982511681845116808217855250505050505090500191505090815260200160405180910390206005016000826040518082805190602001908083835b6020831015156121ac5780518252602082019150602081019050602083039250612187565b6001836020036101000a038019825116818451168082178552505050505050905001915050908152602001604051809103902060040190805460018160011615610100020316600290046122019291906147d4565b50600080826040518082805190602001908083835b60208310151561223b5780518252602082019150602081019050602083039250612216565b6001836020036101000a0380198251168184511680821785525050505050509050019150509081526020016040518091039020600b0160016101000a81548173ffffffffffffffffffffffffffffffffffffffff021916908373ffffffffffffffffffffffffffffffffffffffff1602179055506122b9565b600080fd5b5b6000816040518082805190602001908083835b6020831015156122f257805182526020820191506020810190506020830392506122cd565b6001836020036101000a0380198251168184511680821785525050505050509050019150509081526020016040518091039020600b0160009054906101000a900460ff161561234057600080fd5b60016000826040518082805190602001908083835b60208310151561237a5780518252602082019150602081019050602083039250612355565b6001836020036101000a0380198251168184511680821785525050505050509050019150509081526020016040518091039020600b0160006101000a81548160ff02191690831515021790555050565b6000816040518082805190602001908083835b60208310151561240257805182526020820191506020810190506020830392506123dd565b6001836020036101000a038019825116818451168082178552505050505050905001915050908152602001604051809103902060030160019054906101000a900460ff16151561245157600080fd5b6000816040518082805190602001908083835b6020831015156124895780518252602082019150602081019050602083039250612464565b6001836020036101000a038019825116818451168082178552505050505050905001915050908152602001604051809103902060030160009054906101000a900460ff16156127f2576000816040518082805190602001908083835b60208310151561250a57805182526020820191506020810190506020830392506124e5565b6001836020036101000a0380198251168184511680821785525050505050509050019150509081526020016040518091039020600201546000826040518082805190602001908083835b6020831015156125795780518252602082019150602081019050602083039250612554565b6001836020036101000a0380198251168184511680821785525050505050509050019150509081526020016040518091039020600a0154420311156127ec57600080826040518082805190602001908083835b6020831015156125f157805182526020820191506020810190506020830392506125cc565b6001836020036101000a038019825116818451168082178552505050505050905001915050908152602001604051809103902060030160006101000a81548160ff0219169083151502179055506000816040518082805190602001908083835b6020831015156126765780518252602082019150602081019050602083039250612651565b6001836020036101000a03801982511681845116808217855250505050505090500191505090815260200160405180910390206005016000826040518082805190602001908083835b6020831015156126e457805182526020820191506020810190506020830392506126bf565b6001836020036101000a038019825116818451168082178552505050505050905001915050908152602001604051809103902060040190805460018160011615610100020316600290046127399291906147d4565b50600080826040518082805190602001908083835b602083101515612773578051825260208201915060208101905060208303925061274e565b6001836020036101000a0380198251168184511680821785525050505050509050019150509081526020016040518091039020600b0160016101000a81548173ffffffffffffffffffffffffffffffffffffffff021916908373ffffffffffffffffffffffffffffffffffffffff1602179055506127f1565b600080fd5b5b6000816040518082805190602001908083835b60208310151561282a5780518252602082019150602081019050602083039250612805565b6001836020036101000a0380198251168184511680821785525050505050509050019150509081526020016040518091039020600b0160009054906101000a900460ff16151561287957600080fd5b6000816040518082805190602001908083835b6020831015156128b1578051825260208201915060208101905060208303925061288c565b6001836020036101000a0380198251168184511680821785525050505050509050019150509081526020016040518091039020600701543410156128f457600080fd5b6000816040518082805190602001908083835b60208310151561292c5780518252602082019150602081019050602083039250612907565b6001836020036101000a0380198251168184511680821785525050505050509050019150509081526020016040518091039020600901543411151561297057600080fd5b600080826040518082805190602001908083835b6020831015156129a95780518252602082019150602081019050602083039250612984565b6001836020036101000a038019825116818451168082178552505050505050905001915050908152602001604051809103902060090154141515612b2b576000816040518082805190602001908083835b602083101515612a1f57805182526020820191506020810190506020830392506129fa565b6001836020036101000a038019825116818451168082178552505050505050905001915050908152602001604051809103902060080160009054906101000a900473ffffffffffffffffffffffffffffffffffffffff1673ffffffffffffffffffffffffffffffffffffffff166108fc6000836040518082805190602001908083835b602083101515612ac75780518252602082019150602081019050602083039250612aa2565b6001836020036101000a0380198251168184511680821785525050505050509050019150509081526020016040518091039020600901549081150290604051600060405180830381858888f19350505050158015612b29573d6000803e3d6000fd5b505b346000826040518082805190602001908083835b602083101515612b645780518252602082019150602081019050602083039250612b3f565b6001836020036101000a038019825116818451168082178552505050505050905001915050908152602001604051809103902060090181905550336000826040518082805190602001908083835b602083101515612bd75780518252602082019150602081019050602083039250612bb2565b6001836020036101000a038019825116818451168082178552505050505050905001915050908152602001604051809103902060080160006101000a81548173ffffffffffffffffffffffffffffffffffffffff021916908373ffffffffffffffffffffffffffffffffffffffff16021790555050565b612c56614923565b60003373ffffffffffffffffffffffffffffffffffffffff166000896040518082805190602001908083835b602083101515612ca75780518252602082019150602081019050602083039250612c82565b6001836020036101000a038019825116818451168082178552505050505050905001915050908152602001604051809103902060010160009054906101000a900473ffffffffffffffffffffffffffffffffffffffff1673ffffffffffffffffffffffffffffffffffffffff16141515612d2057600080fd5b6000886040518082805190602001908083835b602083101515612d585780518252602082019150602081019050602083039250612d33565b6001836020036101000a038019825116818451168082178552505050505050905001915050908152602001604051809103902060030160009054906101000a900460ff16156130c1576000886040518082805190602001908083835b602083101515612dd95780518252602082019150602081019050602083039250612db4565b6001836020036101000a0380198251168184511680821785525050505050509050019150509081526020016040518091039020600201546000896040518082805190602001908083835b602083101515612e485780518252602082019150602081019050602083039250612e23565b6001836020036101000a0380198251168184511680821785525050505050509050019150509081526020016040518091039020600a0154420311156130bb57600080896040518082805190602001908083835b602083101515612ec05780518252602082019150602081019050602083039250612e9b565b6001836020036101000a038019825116818451168082178552505050505050905001915050908152602001604051809103902060030160006101000a81548160ff0219169083151502179055506000886040518082805190602001908083835b602083101515612f455780518252602082019150602081019050602083039250612f20565b6001836020036101000a03801982511681845116808217855250505050505090500191505090815260200160405180910390206005016000896040518082805190602001908083835b602083101515612fb35780518252602082019150602081019050602083039250612f8e565b6001836020036101000a038019825116818451168082178552505050505050905001915050908152602001604051809103902060040190805460018160011615610100020316600290046130089291906147d4565b50600080896040518082805190602001908083835b602083101515613042578051825260208201915060208101905060208303925061301d565b6001836020036101000a0380198251168184511680821785525050505050509050019150509081526020016040518091039020600b0160016101000a81548173ffffffffffffffffffffffffffffffffffffffff021916908373ffffffffffffffffffffffffffffffffffffffff1602179055506130c0565b600080fd5b5b6000876040518082805190602001908083835b6020831015156130f957805182526020820191506020810190506020830392506130d4565b6001836020036101000a038019825116818451168082178552505050505050905001915050908152602001604051809103902060030160019054906101000a900460ff161561314757600080fd5b6000886040518082805190602001908083835b60208310151561317f578051825260208201915060208101905060208303925061315a565b6001836020036101000a03801982511681845116808217855250505050505090500191505090815260200160405180910390206101c06040519081016040529081600082018054600181600116156101000203166002900480601f0160208091040260200160405190810160405280929190818152602001828054600181600116156101000203166002900480156132585780601f1061322d57610100808354040283529160200191613258565b820191906000526020600020905b81548152906001019060200180831161323b57829003601f168201915b505050505081526020016001820160009054906101000a900473ffffffffffffffffffffffffffffffffffffffff1673ffffffffffffffffffffffffffffffffffffffff1673ffffffffffffffffffffffffffffffffffffffff168152602001600282015481526020016003820160009054906101000a900460ff161515151581526020016003820160019054906101000a900460ff16151515158152602001600482018054600181600116156101000203166002900480601f0160208091040260200160405190810160405280929190818152602001828054600181600116156101000203166002900480156133905780601f1061336557610100808354040283529160200191613390565b820191906000526020600020905b81548152906001019060200180831161337357829003601f168201915b50505050508152602001600582018054600181600116156101000203166002900480601f0160208091040260200160405190810160405280929190818152602001828054600181600116156101000203166002900480156134325780601f1061340757610100808354040283529160200191613432565b820191906000526020600020905b81548152906001019060200180831161341557829003601f168201915b50505050508152602001600682018054600181600116156101000203166002900480601f0160208091040260200160405190810160405280929190818152602001828054600181600116156101000203166002900480156134d45780601f106134a9576101008083540402835291602001916134d4565b820191906000526020600020905b8154815290600101906020018083116134b757829003601f168201915b50505050508152602001600782015481526020016008820160009054906101000a900473ffffffffffffffffffffffffffffffffffffffff1673ffffffffffffffffffffffffffffffffffffffff1673ffffffffffffffffffffffffffffffffffffffff16815260200160098201548152602001600a8201548152602001600b820160009054906101000a900460ff16151515158152602001600b820160019054906101000a900473ffffffffffffffffffffffffffffffffffffffff1673ffffffffffffffffffffffffffffffffffffffff1673ffffffffffffffffffffffffffffffffffffffff16815250509150868260000181905250858260400181815250508482610100018181525050838260c00181905250828260e001819052506000886040518082805190602001908083835b60208310151561362c5780518252602082019150602081019050602083039250613607565b6001836020036101000a038019825116818451168082178552505050505050905001915050908152602001604051809103902060008082016000613670919061485b565b6001820160006101000a81549073ffffffffffffffffffffffffffffffffffffffff021916905560028201600090556003820160006101000a81549060ff02191690556003820160016101000a81549060ff02191690556004820160006136d7919061485b565b6005820160006136e7919061485b565b6006820160006136f7919061485b565b60078201600090556008820160006101000a81549073ffffffffffffffffffffffffffffffffffffffff02191690556009820160009055600a820160009055600b820160006101000a81549060ff0219169055600b820160016101000a81549073ffffffffffffffffffffffffffffffffffffffff02191690555050816000886040518082805190602001908083835b6020831015156137ac5780518252602082019150602081019050602083039250613787565b6001836020036101000a038019825116818451168082178552505050505050905001915050908152602001604051809103902060008201518160000190805190602001906137fb9291906149db565b5060208201518160010160006101000a81548173ffffffffffffffffffffffffffffffffffffffff021916908373ffffffffffffffffffffffffffffffffffffffff1602179055506040820151816002015560608201518160030160006101000a81548160ff02191690831515021790555060808201518160030160016101000a81548160ff02191690831515021790555060a08201518160040190805190602001906138a99291906149db565b5060c08201518160050190805190602001906138c69291906149db565b5060e08201518160060190805190602001906138e39291906149db565b5061010082015181600701556101208201518160080160006101000a81548173ffffffffffffffffffffffffffffffffffffffff021916908373ffffffffffffffffffffffffffffffffffffffff160217905550610140820151816009015561016082015181600a015561018082015181600b0160006101000a81548160ff0219169083151502179055506101a082015181600b0160016101000a81548173ffffffffffffffffffffffffffffffffffffffff021916908373ffffffffffffffffffffffffffffffffffffffff160217905550905050600090505b600254811015613af857876040518082805190602001908083835b6020831015156139fe57805182526020820191506020810190506020830392506139d9565b6001836020036101000a038019825116818451168082178552505050505050905001915050604051809103902060001916600182815481101515613a3e57fe5b906000526020600020016040518082805460018160011615610100020316600290048015613aa35780601f10613a81576101008083540402835291820191613aa3565b820191906000526020600020905b815481529060010190602001808311613a8f575b50509150506040518091039020600019161415613aed5786600182815481101515613aca57fe5b906000526020600020019080519060200190613ae79291906148a3565b50613af8565b8060010190506139be565b5050505050505050565b60025481565b3373ffffffffffffffffffffffffffffffffffffffff166000826040518082805190602001908083835b602083101515613b575780518252602082019150602081019050602083039250613b32565b6001836020036101000a038019825116818451168082178552505050505050905001915050908152602001604051809103902060010160009054906101000a900473ffffffffffffffffffffffffffffffffffffffff1673ffffffffffffffffffffffffffffffffffffffff16141515613bd057600080fd5b6000816040518082805190602001908083835b602083101515613c085780518252602082019150602081019050602083039250613be3565b6001836020036101000a038019825116818451168082178552505050505050905001915050908152602001604051809103902060030160019054906101000a900460ff161515613c5757600080fd5b6000816040518082805190602001908083835b602083101515613c8f5780518252602082019150602081019050602083039250613c6a565b6001836020036101000a038019825116818451168082178552505050505050905001915050908152602001604051809103902060030160009054906101000a900460ff1615613cdd57600080fd5b6000816040518082805190602001908083835b602083101515613d155780518252602082019150602081019050602083039250613cf0565b6001836020036101000a0380198251168184511680821785525050505050509050019150509081526020016040518091039020600b0160009054906101000a900460ff161515613d6457600080fd5b600080826040518082805190602001908083835b602083101515613d9d5780518252602082019150602081019050602083039250613d78565b6001836020036101000a038019825116818451168082178552505050505050905001915050908152602001604051809103902060080160009054906101000a900473ffffffffffffffffffffffffffffffffffffffff1673ffffffffffffffffffffffffffffffffffffffff161415613e9b57600080826040518082805190602001908083835b602083101515613e495780518252602082019150602081019050602083039250613e24565b6001836020036101000a0380198251168184511680821785525050505050509050019150509081526020016040518091039020600b0160006101000a81548160ff021916908315150217905550614202565b426000826040518082805190602001908083835b602083101515613ed45780518252602082019150602081019050602083039250613eaf565b6001836020036101000a0380198251168184511680821785525050505050509050019150509081526020016040518091039020600a01819055503373ffffffffffffffffffffffffffffffffffffffff166108fc6000836040518082805190602001908083835b602083101515613f605780518252602082019150602081019050602083039250613f3b565b6001836020036101000a0380198251168184511680821785525050505050509050019150509081526020016040518091039020600901549081150290604051600060405180830381858888f19350505050158015613fc2573d6000803e3d6000fd5b5061405b816000836040518082805190602001908083835b602083101515613fff5780518252602082019150602081019050602083039250613fda565b6001836020036101000a038019825116818451168082178552505050505050905001915050908152602001604051809103902060080160009054906101000a900473ffffffffffffffffffffffffffffffffffffffff166145d4565b600080826040518082805190602001908083835b602083101515614094578051825260208201915060208101905060208303925061406f565b6001836020036101000a038019825116818451168082178552505050505050905001915050908152602001604051809103902060080160006101000a81548173ffffffffffffffffffffffffffffffffffffffff021916908373ffffffffffffffffffffffffffffffffffffffff160217905550600080826040518082805190602001908083835b602083101515614141578051825260208201915060208101905060208303925061411c565b6001836020036101000a038019825116818451168082178552505050505050905001915050908152602001604051809103902060090181905550600080826040518082805190602001908083835b6020831015156141b4578051825260208201915060208101905060208303925061418f565b6001836020036101000a0380198251168184511680821785525050505050509050019150509081526020016040518091039020600b0160006101000a81548160ff0219169083151502179055505b50565b6000856040518082805190602001908083835b60208310151561423d5780518252602082019150602081019050602083039250614218565b6001836020036101000a038019825116818451168082178552505050505050905001915050908152602001604051809103902060030160019054906101000a900460ff161561428b57600080fd5b6101c0604051908101604052808681526020013373ffffffffffffffffffffffffffffffffffffffff168152602001858152602001600015158152602001600115158152602001838152602001838152602001828152602001848152602001600073ffffffffffffffffffffffffffffffffffffffff1681526020016000815260200160008152602001600015158152602001600073ffffffffffffffffffffffffffffffffffffffff168152506000866040518082805190602001908083835b602083101515614371578051825260208201915060208101905060208303925061434c565b6001836020036101000a038019825116818451168082178552505050505050905001915050908152602001604051809103902060008201518160000190805190602001906143c09291906149db565b5060208201518160010160006101000a81548173ffffffffffffffffffffffffffffffffffffffff021916908373ffffffffffffffffffffffffffffffffffffffff1602179055506040820151816002015560608201518160030160006101000a81548160ff02191690831515021790555060808201518160030160016101000a81548160ff02191690831515021790555060a082015181600401908051906020019061446e9291906149db565b5060c082015181600501908051906020019061448b9291906149db565b5060e08201518160060190805190602001906144a89291906149db565b5061010082015181600701556101208201518160080160006101000a81548173ffffffffffffffffffffffffffffffffffffffff021916908373ffffffffffffffffffffffffffffffffffffffff160217905550610140820151816009015561016082015181600a015561018082015181600b0160006101000a81548160ff0219169083151502179055506101a082015181600b0160016101000a81548173ffffffffffffffffffffffffffffffffffffffff021916908373ffffffffffffffffffffffffffffffffffffffff16021790555090505060018590806001815401808255809150509060018203906000526020600020016000909192909190915090805190602001906145bb9291906148a3565b5050600260008154600101919050819055505050505050565b3373ffffffffffffffffffffffffffffffffffffffff166000836040518082805190602001908083835b60208310151561462357805182526020820191506020810190506020830392506145fe565b6001836020036101000a038019825116818451168082178552505050505050905001915050908152602001604051809103902060010160009054906101000a900473ffffffffffffffffffffffffffffffffffffffff1673ffffffffffffffffffffffffffffffffffffffff1614151561469c57600080fd5b60016000836040518082805190602001908083835b6020831015156146d657805182526020820191506020810190506020830392506146b1565b6001836020036101000a038019825116818451168082178552505050505050905001915050908152602001604051809103902060030160006101000a81548160ff021916908315150217905550806000836040518082805190602001908083835b60208310151561475c5780518252602082019150602081019050602083039250614737565b6001836020036101000a0380198251168184511680821785525050505050509050019150509081526020016040518091039020600b0160016101000a81548173ffffffffffffffffffffffffffffffffffffffff021916908373ffffffffffffffffffffffffffffffffffffffff1602179055505050565b828054600181600116156101000203166002900490600052602060002090601f016020900481019282601f1061480d578054855561484a565b8280016001018555821561484a57600052602060002091601f016020900482015b8281111561484957825482559160010191906001019061482e565b5b5090506148579190614a5b565b5090565b50805460018160011615610100020316600290046000825580601f1061488157506148a0565b601f01602090049060005260206000209081019061489f9190614a5b565b5b50565b828054600181600116156101000203166002900490600052602060002090601f016020900481019282601f106148e457805160ff1916838001178555614912565b82800160010185558215614912579182015b828111156149115782518255916020019190600101906148f6565b5b50905061491f9190614a5b565b5090565b6101c06040519081016040528060608152602001600073ffffffffffffffffffffffffffffffffffffffff1681526020016000815260200160001515815260200160001515815260200160608152602001606081526020016060815260200160008152602001600073ffffffffffffffffffffffffffffffffffffffff1681526020016000815260200160008152602001600015158152602001600073ffffffffffffffffffffffffffffffffffffffff1681525090565b828054600181600116156101000203166002900490600052602060002090601f016020900481019282601f10614a1c57805160ff1916838001178555614a4a565b82800160010185558215614a4a579182015b82811115614a49578251825591602001919060010190614a2e565b5b509050614a579190614a5b565b5090565b614a7d91905b80821115614a79576000816000905550600101614a61565b5090565b905600a165627a7a72305820e81bc8bd33681f71f720d6a0fd58760f9441fad1ce46f0944ce5b716f64536ff0029",
  "source": "pragma solidity ^0.4.24;\r\n\r\ncontract AssetTracker {\r\n    struct Device {\r\n        string name;\r\n        address owner;\r\n        uint useLength;         // in seconds\r\n        bool inUse;\r\n        bool isValid;\r\n        string accessCode;\r\n        string defaultCode;\r\n        string location;\r\n        uint desiredPrice;\r\n        address bidder;\r\n        uint highestBid;\r\n        uint timeBought;\r\n        bool auctionOn;\r\n        address currentUser;\r\n    }\r\n    \r\n    // contract members\r\n    mapping(string => Device) private devices;\r\n    string[] names;\r\n    uint public numDevices;\r\n    \r\n    constructor() public {\r\n        numDevices = 0;\r\n    }\r\n    \r\n    // loop over this function from 0 to numDevices to return info on all devices one by one\r\n    // return value are in order: name, use length, location, desired price (by owner), current highest bid, is it up for auction\r\n    function getDeviceInfo (uint _id) public view returns (string, uint, string, uint, uint, bool) {\r\n        return (devices[names[_id]].name, devices[names[_id]].useLength, devices[names[_id]].location, devices[names[_id]].desiredPrice, devices[names[_id]].highestBid, devices[names[_id]].auctionOn);\r\n    }\r\n    \r\n    function registerDevice (string _name, uint _useLength, uint _desiredPrice, string _defaultCode, string _location) public {\r\n        if (devices[_name].isValid) {\r\n            revert();\r\n        }\r\n        \r\n        devices[_name] = Device({name: _name, owner: msg.sender, useLength: _useLength, inUse: false, isValid: true, accessCode: _defaultCode, defaultCode: _defaultCode, location: _location, desiredPrice: _desiredPrice, bidder: 0x0, highestBid: 0 ether, timeBought: 0, auctionOn: false, currentUser: 0x0});\r\n        names.push(_name);\r\n        ++numDevices;\r\n    }\r\n    \r\n    function deregisterDevice (string _name) public {\r\n        if (devices[_name].owner != msg.sender) {\r\n            revert();\r\n        }\r\n        \r\n        if (devices[_name].inUse) {\r\n            // update current user if needed\r\n            if (now - devices[_name].timeBought > devices[_name].useLength) {\r\n                devices[_name].inUse = false;\r\n                devices[_name].accessCode = devices[_name].defaultCode;\r\n                devices[_name].currentUser = 0x0;\r\n            }\r\n            else {\r\n                revert();\r\n            }\r\n        }\r\n        \r\n        delete devices[_name];\r\n        \r\n        // swap last element with deleted element\r\n        for (uint i = 0; i < numDevices; ++i) {\r\n            if (keccak256(names[i]) == keccak256(_name)) {\r\n                --numDevices;\r\n                names[i] = names[numDevices];\r\n                delete names[numDevices];\r\n                break;\r\n            }\r\n        }\r\n    }\r\n    \r\n    function updateDevice (string _name, string _newName, uint _newUseLength, uint _newDesiredPrice, string _newDefaultCode, string _newLocation) public {\r\n        if (devices[_name].owner != msg.sender) {\r\n            revert();\r\n        }\r\n        \r\n        if (devices[_name].inUse) {\r\n            // update current user if needed\r\n            if (now - devices[_name].timeBought > devices[_name].useLength) {\r\n                devices[_name].inUse = false;\r\n                devices[_name].accessCode = devices[_name].defaultCode;\r\n                devices[_name].currentUser = 0x0;\r\n            }\r\n            else {\r\n                revert();\r\n            }\r\n        }\r\n        \r\n        if (devices[_newName].isValid) {\r\n            revert();\r\n        }\r\n        \r\n        Device memory updatedDevice = devices[_name];\r\n        updatedDevice.name = _newName;\r\n        updatedDevice.useLength = _newUseLength;\r\n        updatedDevice.desiredPrice = _newDesiredPrice;\r\n        updatedDevice.defaultCode = _newDefaultCode;\r\n        updatedDevice.location = _newLocation;\r\n        \r\n        delete devices[_name];\r\n        devices[_newName] = updatedDevice;\r\n        \r\n        // update names array\r\n        for (uint i = 0; i < numDevices; ++i) {\r\n            if (keccak256(names[i]) == keccak256(_name)) {\r\n                names[i] = _newName;\r\n                break;\r\n            }\r\n        }\r\n    }\r\n    \r\n    // function extendUsePeriod (string _name, uint _newUseLength) private {\r\n        // if (!devices[_name].extendable) {\r\n            // revert();\r\n        // }\r\n        \r\n        // devices[_name].useLength = _newUseLength;\r\n    // }\r\n    \r\n    ////////////////// Auction Functions//////////////////////////\r\n    function makeBid(string _deviceName) public payable {\r\n        if (!devices[_deviceName].isValid) {\r\n            revert();\r\n        }\r\n        \r\n        // if this device's current owner's time has expired, take away access and reset\r\n        if (devices[_deviceName].inUse) {\r\n            if (now - devices[_deviceName].timeBought > devices[_deviceName].useLength) {\r\n                devices[_deviceName].inUse = false;\r\n                devices[_deviceName].accessCode = devices[_deviceName].defaultCode;\r\n                devices[_deviceName].currentUser = 0x0;\r\n            }\r\n            else {\r\n                revert();   \r\n            }\r\n        }\r\n        \r\n        if (!devices[_deviceName].auctionOn) {  \r\n            revert();\r\n        }\r\n        \r\n        if (msg.value < devices[_deviceName].desiredPrice) {\r\n            revert();\r\n        }\r\n        \r\n        if (msg.value <= devices[_deviceName].highestBid) {\r\n            revert();\r\n        }\r\n        \r\n        // if this bid is valid, give back old highest bid and take this bid\r\n        if (devices[_deviceName].highestBid != 0) {\r\n            devices[_deviceName].bidder.transfer(devices[_deviceName].highestBid);\r\n        }\r\n        \r\n        devices[_deviceName].highestBid = msg.value;\r\n        devices[_deviceName].bidder = msg.sender;\r\n    }\r\n    \r\n    function startAuction(string _deviceName) public {\r\n        if (devices[_deviceName].owner != msg.sender) {\r\n            revert();\r\n        }\r\n        \r\n        if (!devices[_deviceName].isValid) {\r\n            revert();\r\n        }\r\n        \r\n        if (devices[_deviceName].inUse) {\r\n            // update current user if needed\r\n            if (now - devices[_deviceName].timeBought > devices[_deviceName].useLength) {\r\n                devices[_deviceName].inUse = false;\r\n                devices[_deviceName].accessCode = devices[_deviceName].defaultCode;\r\n                devices[_deviceName].currentUser = 0x0;\r\n            }\r\n            else {\r\n                revert();\r\n            }\r\n        }\r\n        \r\n        if (devices[_deviceName].auctionOn) {\r\n            revert();\r\n        }\r\n        \r\n        devices[_deviceName].auctionOn = true;\r\n    }\r\n    \r\n    function endAuction(string _deviceName) public {\r\n        if (devices[_deviceName].owner != msg.sender) {\r\n            revert();\r\n        }\r\n        \r\n        if (!devices[_deviceName].isValid) {\r\n            revert();\r\n        }\r\n        \r\n        if (devices[_deviceName].inUse) {\r\n            revert();\r\n        }\r\n        \r\n        if (!devices[_deviceName].auctionOn) {\r\n            revert();\r\n        }\r\n        \r\n        if (devices[_deviceName].bidder == 0x0) {\r\n            devices[_deviceName].auctionOn = false;\r\n            return;\r\n        }\r\n        \r\n        devices[_deviceName].timeBought = now;\r\n        msg.sender.transfer(devices[_deviceName].highestBid);   // send money from auction to device owner\r\n        giveAccess(_deviceName, devices[_deviceName].bidder);\r\n        devices[_deviceName].bidder = 0x0;\r\n        devices[_deviceName].highestBid = 0;\r\n        devices[_deviceName].auctionOn = false;\r\n    }\r\n    \r\n    \r\n    ///////////////////////// Access Functions /////////////////////////////////\r\n    function giveAccess(string _deviceName, address _winner) private {\r\n        if (devices[_deviceName].owner != msg.sender) {\r\n            revert();\r\n        }\r\n        \r\n        devices[_deviceName].inUse = true;\r\n        devices[_deviceName].currentUser = _winner;\r\n    }\r\n    \r\n    function removeAccess(string _deviceName) public {\r\n        if (devices[_deviceName].owner != msg.sender) {\r\n            revert();\r\n        }\r\n        \r\n        if (now - devices[_deviceName].timeBought <= devices[_deviceName].useLength) {\r\n            revert();\r\n        }\r\n        \r\n        if (!devices[_deviceName].isValid) {\r\n            revert();\r\n        }\r\n        \r\n        devices[_deviceName].inUse = false;\r\n        devices[_deviceName].accessCode = devices[_deviceName].defaultCode;\r\n        devices[_deviceName].currentUser = 0x0;\r\n    }\r\n    \r\n    // allows current user (and only the current user) to change and view access code\r\n    function createAccessCode(string _deviceName, string _myCode) public returns (string) {\r\n        if (!devices[_deviceName].isValid) {\r\n            revert();\r\n        }\r\n        \r\n        if (msg.sender == devices[_deviceName].currentUser) {\r\n            // update current user if needed\r\n            if (now - devices[_deviceName].timeBought > devices[_deviceName].useLength) {\r\n                devices[_deviceName].inUse = false;\r\n                devices[_deviceName].accessCode = devices[_deviceName].defaultCode;\r\n                devices[_deviceName].currentUser = 0x0;\r\n                return \"ACCESS EXPIRED\";\r\n            }\r\n            \r\n            devices[_deviceName].accessCode = _myCode;\r\n            return \"PASSWORD CHANGE SUCCESSFUL\";\r\n        }\r\n        \r\n        else {\r\n            return \"PERMISSION DENIED\";\r\n        }\r\n    }\r\n}\r\n",
  "sourcePath": "/Users/ryanjohnston/Programming/LTH/IoTAssetTracker/contracts/AssetTracker.sol",
  "compiler": {
    "name": "solc",
    "version": "0.4.24+commit.e67f0147.Emscripten.clang"
  },
  "schemaVersion": "2.0.0",
  "updatedAt": "2018-06-12T12:33:46.003Z"
}